:100000000C9431000C9455060C947E060C94AB06AF
:100010000C944E000C9415070C944E000C944E005A
:100020000C944E000C944E000C944E000C94EC0674
:100030000C944E000C944E000C944E000C944E0008
:100040000C944E000C944E000C944E000C944E00F8
:100050000C944E0009080E08130818081D08220801
:10006000270811241FBECFE5D8E0DEBFCDBF10E0CA
:10007000A0E6B0E0E4EEF5E102C005900D92A236F4
:10008000B107D9F720E0A2E6B0E001C01D92AB377E
:10009000B207E1F70E9431040C94F00A0C940000BE
:1000A000CF93DF9300D000D0CDB7DEB719821A828C
:1000B0001B821C820E947D03882319F00E94520833
:1000C00017C00E946E080E948E0869837A838B8312
:1000D0009C8369817A818B819C8120E030E04AEFAA
:1000E00054E40E94200918161CF081E080936C00F3
:1000F0000F900F900F900F90DF91CF91089585E0B2
:100100000E94D30384E00E94D30383E00E94A103F2
:1001100082E00E94A10381E00E94D30380E00E945C
:10012000D30310926A00089585E00E94D30384E00F
:100130000E94A10383E00E94D30382E00E94D303C4
:1001400081E00E94A10380E00E94D30381E08093BC
:100150006A00089585E00E94A10384E00E94D30311
:1001600083E00E94D30382E00E94D30381E00E94D7
:10017000D30380E00E94A10310926A00089584E0F6
:100180000E94050481E00E94050481E090916A00CC
:10019000911180E080936A0008950E9482030E947A
:1001A0006D0380E00E943E0780E00E94E5070E9408
:1001B000DD0580E590E00E9477030E947F000895AE
:1001C000CF92DF92EF92FF9280916C00882321F012
:1001D000813009F494C17CC280916000813009F4BF
:1001E00004C108F4C7C08230F1F1833009F084C142
:1001F000609166007091670080916800909169003D
:1002000020E030E84BEB55E40E94780A882374F034
:1002100010926600109267001092680010926900B8
:1002200082E0809360000E94940066C160E070E00C
:1002300088EC92E40E948A0720E030E048EC52E427
:1002400060916600709167008091680090916900EC
:100250000E94B40860936600709367008093680002
:100260009093690049C16091660070916700809128
:1002700068009091690020E030E84BEB55E40E9463
:10028000780A8823ACF010926600109267001092F2
:100290006800109269001092620010926300109240
:1002A000640010926500109260000E94AA0024C1B0
:1002B000C0906200D0906300E0906400F090650010
:1002C00020E030E048E453E4C701B6010E94780A18
:1002D000882324F080916A00882371F020E030E0C8
:1002E00048E454E4C701B6010E94780A88237CF0F0
:1002F00080916A00813059F410926200109263007C
:1003000010926400109265000E94BF00F5C060E08A
:1003100070E088EC92E40E948A0720E030E048EC2C
:1003200052E460916600709167008091680090913E
:1003300069000E94B4086093660070936700809320
:1003400068009093690020E030E048EC52E460914E
:1003500062007091630080916400909165000E943A
:10036000B40860936200709363008093640090937C
:100370006500C2C06091660070916700809168005E
:100380009091690020E030E84BEB55E40E94780A38
:10039000882374F010926600109267001092680033
:1003A0001092690081E0809360000E949400A4C0D4
:1003B00060E070E088EC92E40E948A0720E030E080
:1003C00048EC52E46091660070916700809168008B
:1003D000909169000E94B408609366007093670072
:1003E000809368009093690087C060916600709167
:1003F0006700809168009091690020E030E84BEB45
:1004000055E40E94780A8823B4F010926600109296
:1004100067001092680010926900109262001092BA
:100420006300109264001092650083E08093600086
:100430000E947F0061C0C0906200D0906300E09095
:100440006400F090650020E030E048E453E4C70128
:10045000B6010E94780A882324F080916A008823DC
:1004600071F020E030E048E454E4C701B6010E9496
:10047000780A88237CF080916A00813059F41092C8
:1004800062001092630010926400109265000E9456
:10049000BF0032C060E070E088EC92E40E948A07FE
:1004A00020E030E048EC52E4609166007091670013
:1004B00080916800909169000E94B4086093660082
:1004C00070936700809368009093690020E030E0AB
:1004D00048EC52E460916200709163008091640086
:1004E000909165000E94B40860936200709363006D
:1004F000809364009093650010926B00E9C0809136
:100500006B008130B9F080916000813081F08330E0
:1005100089F41092660010926700109268001092A1
:10052000690082E0809360000E94940003C082E032
:100530008093600080916000882309F48AC0823033
:1005400009F0C3C0609166007091670080916800F7
:100550009091690020E030E84BEB55E40E94780A66
:100560008823ACF010926600109267001092680029
:100570001092690010926200109263001092640061
:1005800010926500109260000E94AA009EC0C09068
:100590006200D0906300E0906400F090650020E07D
:1005A00030E048E453E4C701B6010E94780A88238A
:1005B00024F080916A00882371F020E030E048E464
:1005C00054E4C701B6010E94780A88237CF0809128
:1005D0006A00813059F41092620010926300109208
:1005E0006400109265000E94BF006FC060E070E080
:1005F00088EC92E40E948A0720E030E048EC52E464
:100600006091660070916700809168009091690028
:100610000E94B4086093660070936700809368003E
:100620009093690020E030E048EC52E46091620071
:100630007091630080916400909165000E94B408FD
:1006400060936200709363008093640090936500F0
:100650003CC0609166007091670080916800909145
:10066000690020E030E84BEB55E40E94780A8823CB
:1006700084F0109266001092670010926800109249
:10068000690081E0809360000E94940010926C00E9
:100690001CC060E070E088EC92E40E948A0720E0D1
:1006A00030E048EC52E46091660070916700809100
:1006B0006800909169000E94B4086093660070938E
:1006C0006700809368009093690081E080936B00DD
:1006D000FF90EF90DF90CF90089540E062E083E0DC
:1006E0000E94360462E080E00E94F30508950E94B3
:1006F0004E0680E00E94E105089562E083E00E94DA
:100700005405089541E060E080E00E94360441E035
:1007100061E080E00E94360441E062E080E00E94F7
:10072000360441E060E081E00E94360441E061E08F
:1007300081E00E94360441E062E081E00E943604DC
:100740000895823051F128F48823D9F08130F9F0EE
:100750000895843051F018F0853069F0089541E033
:1007600060E080E00E94AB04089541E061E080E039
:100770000E94AB04089541E062E080E00E94AB0477
:10078000089541E060E081E00E94AB04089541E0FB
:1007900061E081E00E94AB04089541E062E081E005
:1007A0000E94AB040895823051F128F48823D9F0D7
:1007B0008130F9F00895843051F018F0853069F0F7
:1007C000089540E060E080E00E94AB04089540E0BE
:1007D00061E080E00E94AB04089540E062E080E0C8
:1007E0000E94AB04089540E060E081E00E94AB0409
:1007F000089540E061E081E00E94AB04089540E08C
:1008000062E081E00E94AB040895823029F128F46F
:100810008823C1F08130D9F00895843049F018F070
:10082000853059F0089560E080E00E942005089529
:1008300061E080E00E942005089562E080E00E946F
:100840002005089560E081E00E942005089561E0A0
:1008500081E00E942005089562E081E00E94200569
:1008600008950E94CD000E94E000FDCF813011F17B
:1008700030F08230D1F1833009F452C00895413014
:1008800059F42AB381E090E002C0880F991F6A955D
:10089000E2F7822B8ABB089541115CC02AB381E044
:1008A00090E002C0880F991F6A95E2F78095822335
:1008B0008ABB0895413059F427B381E090E002C02B
:1008C000880F991F6A95E2F7822B87BB0895411123
:1008D00041C027B381E090E002C0880F991F6A955C
:1008E000E2F78095822387BB0895413059F424B301
:1008F00081E090E002C0880F991F6A95E2F7822B91
:1009000084BB0895411126C024B381E090E002C069
:10091000880F991F6A95E2F78095822384BB08951A
:10092000413059F421B381E090E002C0880F991F53
:100930006A95E2F7822B81BB089541110BC021B368
:1009400081E090E002C0880F991F6A95E2F78095D8
:10095000822381BB0895813011F130F08230D1F1D2
:10096000833009F452C00895413059F42BB381E02B
:1009700090E002C0880F991F6A95E2F7822B8BBB2B
:10098000089541115CC02BB381E090E002C0880F54
:10099000991F6A95E2F7809582238BBB08954130B9
:1009A00059F428B381E090E002C0880F991F6A953E
:1009B000E2F7822B88BB0895411141C028B381E042
:1009C00090E002C0880F991F6A95E2F78095822314
:1009D00088BB0895413059F425B381E090E002C00E
:1009E000880F991F6A95E2F7822B85BB0895411104
:1009F00026C025B381E090E002C0880F991F6A9558
:100A0000E2F78095822385BB0895413059F422B3E3
:100A100081E090E002C0880F991F6A95E2F7822B6F
:100A200082BB089541110BC022B381E090E002C067
:100A3000880F991F6A95E2F78095822382BB0895FB
:100A4000813089F028F08230C9F0833011F10895A7
:100A50002BB381E090E002C0880F991F6A95E2F7FE
:100A600082278BBB089528B381E090E002C0880FF5
:100A7000991F6A95E2F7822788BB089525B381E024
:100A800090E002C0880F991F6A95E2F7822785BB24
:100A9000089522B381E090E002C0880F991F6A9503
:100AA000E2F7822782BB0895262F813039F138F092
:100AB000823009F442C0833009F45EC07CC039B38F
:100AC00081E090E0A0E0B0E0AC01BD01022E04C0E6
:100AD000440F551F661F771F0A94D2F7832F90E0AB
:100AE000A0E0B0E084239523A623B72304C0B695E5
:100AF000A795979587952A95D2F7089536B381E003
:100B000090E0A0E0B0E0AC01BD01022E04C0440FB3
:100B1000551F661F771F0A94D2F7832F90E0A0E03D
:100B2000B0E084239523A623B72304C0B695A795E8
:100B3000979587952A95D2F7089533B381E090E091
:100B4000A0E0B0E0AC01BD01022E04C0440F551F6F
:100B5000661F771F0A94D2F7832F90E0A0E0B0E0E1
:100B600084239523A623B72304C0B695A79597950C
:100B700087952A95D2F7089530B381E090E0A0E000
:100B8000B0E0AC01BD01022E04C0440F551F661F2A
:100B9000771F0A94D2F7832F90E0A0E0B0E084237F
:100BA0009523A623B72304C0B695A7959795879557
:100BB0002A95D2F708958FEF08958FB780688FBF79
:100BC0000895813041F018F0823049F008958BB7D4
:100BD00080648BBF08958BB780688BBF08958BB7F7
:100BE00080628BBF0895813049F120F0823009F492
:100BF00049C00895613039F485B7816085BF85B7F4
:100C0000826085BF0895611107C085B78E7F85BF5B
:100C100085B7826085BF0895623039F485B78160F9
:100C200085BF85B78D7F85BF08956330B1F585B7E2
:100C30008E7F85BF85B78D7F85BF0895613039F47C
:100C400085B7846085BF85B7886085BF08956111C9
:100C500007C085B78B7F85BF85B7886085BF08953E
:100C6000623039F485B7846085BF85B7877F85BFDB
:100C70000895633091F485B78B7F85BF85B7877FF3
:100C800085BF0895613021F484B7806484BF0895DE
:100C9000611103C084B78F7B84BF0895009721F052
:100CA000909372008093710008951F920F920FB677
:100CB0000F9211242F933F934F935F936F937F93E2
:100CC0008F939F93AF93BF93EF93FF93E091710046
:100CD000F0917200309709F00995FF91EF91BF9163
:100CE000AF919F918F917F916F915F914F913F91C4
:100CF0002F910F900FBE0F901F9018951F920F927B
:100D00000FB60F9211242F933F934F935F936F93DE
:100D10007F938F939F93AF93BF93EF93FF938091B4
:100D2000710090917200892B29F0E0916F00F09191
:100D300070000995FF91EF91BF91AF919F918F91B5
:100D40007F916F915F914F913F912F910F900FBEC7
:100D50000F901F9018951F920F920FB60F921124AB
:100D60002F933F934F935F936F937F938F939F93B3
:100D7000AF93BF93EF93FF938091710090917200B6
:100D8000892B29F0E0916D00F0916E000995FF919B
:100D9000EF91BF91AF919F918F917F916F915F91F3
:100DA0004F913F912F910F900FBE0F901F9018956C
:100DB0008091770090917800A0917900B0917A00AD
:100DC0009F5FAF4FBF4F8093770090937800A093C1
:100DD0007900B0937A0008951F920F920FB60F9288
:100DE00011242F933F934F935F936F937F938F9330
:100DF0009F93AF93BF93EF93FF93E0917500F091B2
:100E00007600309709F00995FF91EF91BF91AF916E
:100E10009F918F917F916F915F914F913F912F9112
:100E20000F900FBE0F901F9018951F920F920FB644
:100E30000F9211242F933F934F935F936F937F9360
:100E40008F939F93AF93BF93EF93FF93E0917300C2
:100E5000F0917400309709F00995FF91EF91BF91DF
:100E6000AF919F918F917F916F915F914F913F9142
:100E70002F910F900FBE0F901F901895813079F031
:100E800028F0823081F0833019F0089513BE089560
:100E900083B7886083BF83B7806483BF089583B7B7
:100EA000806483BF089583B7886083BF089582BF3D
:100EB00008958330A9F028F4882341F0813059F057
:100EC0000895853091F08630A9F0089583B7887F22
:100ED000816083BF089583B7887F826083BF089550
:100EE00083B7887F836083BF089583B7887F8460DA
:100EF00083BF089583B7887F856083BF089583B7D4
:100F0000887F83BF089588B7816088BF089588B7B8
:100F1000817008958F929F92AF92BF92CF92DF928D
:100F2000EF92FF92CF93DF9300D000D0CDB7DEB722
:100F30006B017C010E947F070E9483078FE692E18C
:100F4000A3E8BDE389839A83AB83BC8329813A817B
:100F50004B815C81C701B6010E9425090E94970957
:100F6000C72ED82EE92EFF242FEFC21AD20AE20A8A
:100F7000F20A862F81950E94570783E00E94590745
:100F8000812C912C54010BC00E948707882339F0D3
:100F90008FEF881A980AA80AB80A0E9483078C144F
:100FA0009D04AE04BF0480F30E947F070F900F9052
:100FB0000F900F90DF91CF91FF90EF90DF90CF9047
:100FC000BF90AF909F908F900895813079F028F076
:100FD000823081F0833019F0089515BC089585B5ED
:100FE000886085BD85B5806485BD089585B58064BC
:100FF00085BD089585B5886085BD089584BD089533
:1010000090E08730910530F5FC01E65DFF4F0C94D0
:10101000EA0A85B5887F816085BD089585B5887F9A
:10102000826085BD089585B5887F836085BD0895FC
:1010300085B5887F846085BD089585B5887F856086
:1010400085BD089585B5887F866085BD089585B581
:10105000876085BD089585B5887F85BD089588B76B
:10106000806488BF089588B7807490E0A0E0B0E005
:10107000689415F8B695A795979587951694D1F726
:10108000089584B5089589B7806489BF089589B7A4
:101090008F7B89BF0895009721F09093740080930F
:1010A00073000895109277001092780010927900E2
:1010B00010927A000E942B0880E00E94FE070E9496
:1010C000330881110E942F0888ED96E00E944B089A
:1010D0000E94430883E00E94000808950E942B08A4
:1010E0000E9441084091770050917800609179000A
:1010F00070917A00480F511D611D711D409377005A
:10110000509378006093790070937A000E943308BE
:1011100081110E942F080E9447080895CF93DF9302
:1011200000D000D0CDB7DEB78FE692E1A3E8BDE3F3
:1011300089839A83AB83BC83609177007091780038
:101140008091790090917A000E94C60929813A81A4
:101150004B815C810E947D0A0F900F900F900F9041
:10116000DF91CF9108955058BB27AA270E94CB0842
:101170000C943E0A0E94300A38F00E94370A20F090
:1011800039F49F3F19F426F40C942D0A0EF4E095DF
:10119000E7FB0C94270AE92F0E944F0A58F3BA176D
:1011A000620773078407950720F079F4A6F50C947D
:1011B000710A0EF4E0950B2EBA2FA02D0B01B90188
:1011C00090010C01CA01A0011124FF27591B99F0BD
:1011D000593F50F4503E68F11A16F040A22F232FC9
:1011E000342F4427585FF3CF469537952795A79519
:1011F000F0405395C9F77EF41F16BA0B620B730BC0
:10120000840BBAF09150A1F0FF0FBB1F661F771F30
:10121000881FC2F70EC0BA0F621F731F841F48F4E5
:10122000879577956795B795F7959E3F08F0B0CF6E
:101230009395880F08F09927EE0F97958795089555
:101240000E94030A08F481E008950E9439090C9471
:101250003E0A0E94370A58F00E94300A40F029F4F2
:101260005F3F29F00C94270A51110C94720A0C94D8
:101270002D0A0E944F0A68F39923B1F3552391F385
:10128000951B550BBB27AA2762177307840738F0F5
:101290009F5F5F4F220F331F441FAA1FA9F335D052
:1012A0000E2E3AF0E0E832D091505040E695001C06
:1012B000CAF72BD0FE2F29D0660F771F881FBB1FC0
:1012C000261737074807AB07B0E809F0BB0B802D9E
:1012D000BF01FF2793585F4F3AF09E3F510578F0CA
:1012E0000C94270A0C94720A5F3FE4F3983ED4F3FF
:1012F000869577956795B795F7959F5FC9F7880F9E
:10130000911D9695879597F90895E1E0660F771FEF
:10131000881FBB1F621773078407BA0720F0621B80
:10132000730B840BBA0BEE1F88F7E09508950E94AB
:10133000570A88F09F5798F0B92F9927B751B0F006
:10134000E1F0660F771F881F991F1AF0BA95C9F749
:1013500014C0B13091F00E94710AB1E008950C946C
:10136000710A672F782F8827B85F39F0B93FCCF31F
:10137000869577956795B395D9F73EF490958095C6
:10138000709561957F4F8F4F9F4F0895E89409C0E6
:1013900097FB3EF490958095709561957F4F8F4FA8
:1013A0009F4F9923A9F0F92F96E9BB279395F695BE
:1013B000879577956795B795F111F8CFFAF4BB0F3C
:1013C00011F460FF1BC06F5F7F4F8F4F9F4F16C0A0
:1013D000882311F096E911C0772321F09EE8872F2A
:1013E000762F05C0662371F096E8862F70E060E0E6
:1013F0002AF09A95660F771F881FDAF7880F96955F
:10140000879597F90895990F0008550FAA0BE0E802
:10141000FEEF16161706E807F907C0F012161306B6
:10142000E407F50798F0621B730B840B950B39F4F6
:101430000A2661F0232B242B252B21F408950A265C
:1014400009F4A140A6958FEF811D811D089597F99C
:101450009F6780E870E060E008959FEF80EC08955A
:1014600000240A9416161706180609060895002483
:101470000A9412161306140605060895092E0394FD
:10148000000C11F4882352F0BB0F40F4BF2B11F471
:1014900060FF04C06F5F7F4F8F4F9F4F089557FDD0
:1014A0009058440F551F59F05F3F71F04795880FD2
:1014B00097FB991F61F09F3F79F087950895121669
:1014C00013061406551FF2CF4695F1DF08C0161615
:1014D00017061806991FF1CF8695710561050894C6
:1014E0000895E894BB2766277727CB0197F90895DD
:1014F0000E94030A08F48FEF08950E94900A0C944A
:101500003E0A0E94300A38F00E94370A20F09523E4
:1015100011F00C94270A0C942D0A11240C94720AD1
:101520000E944F0A70F3959FC1F3950F50E0551F2D
:10153000629FF001729FBB27F00DB11D639FAA2728
:10154000F00DB11DAA1F649F6627B00DA11D661F77
:10155000829F2227B00DA11D621F739FB00DA11D98
:10156000621F839FA00D611D221F749F3327A00D52
:10157000611D231F849F600D211D822F762F6A2FEE
:1015800011249F5750409AF0F1F088234AF0EE0F53
:10159000FF1FBB1F661F771F881F91505040A9F780
:1015A0009E3F510580F00C94270A0C94720A5F3F0D
:1015B000E4F3983ED4F3869577956795B795F795BC
:1015C000E7959F5FC1F7FE2B880F911D9695879534
:1015D00097F90895EE0FFF1F0590F491E02D0994FF
:0415E000F894FFCFAD
:0215E400030002
:00000001FF
